:020000040000FA
:100000000C9458000C9480000C9480000C94800098
:100010000C9480000C9480000C9480000C94800060
:100020000C9480000C9480000C9480000C94800050
:100030000C9480000C9480000C9480000C94800040
:100040000C94BE080C9480000C948C080C946608E8
:100050000C9480000C9480000C9480000C94800020
:100060000C9408090C948000000000002500280072
:100070002B00040404040404040402020202020229
:10008000030303030303010204081020408001025C
:1000900004081020010204081020000000080002DB
:1000A0000100000304070000000000000000270A10
:1000B00011241FBECFEFD8E0DEBFCDBF11E0A0E01E
:1000C000B1E0E6E1F8E102C005900D92A23DB10772
:1000D000D9F723E0A2EDB1E001C01D92A935B20726
:1000E000E1F710E0C8E5D0E004C02197FE010E94CE
:1000F000030CC735D107C9F70E94800A0C94090C7C
:100100000C94000008950895AF92BF92CF92DF92B1
:10011000EF92FF920F931F93CF93DF936C017B01BC
:100120008B01040F151FEB015E01AE18BF08C0174D
:10013000D10759F06991D601ED91FC910190F081C0
:10014000E02DC6010995892B79F7C501DF91CF9183
:100150001F910F91FF90EF90DF90CF90BF90AF90E5
:100160000895FC01538D448D252F30E0842F90E0BD
:10017000821B930B541710F0CF96089501970895A2
:10018000FC01918D828D981761F0A28DAE0FBF2F6B
:10019000B11D5D968C91928D9F5F9F73928F90E0C1
:1001A00008958FEF9FEF0895FC01918D828D981730
:1001B00031F0828DE80FF11D858D90E008958FEF6D
:1001C0009FEF0895FC01918D228D892F90E0805C36
:1001D0009F4F821B91098F739927089588EA92E0B7
:1001E0000E94E20021E0892B09F420E0822F08958B
:1001F00080E090E0892B29F00E94EE0081110C94A0
:1002000000000895FC01A48DA80FB92FB11DA35AB9
:10021000BF4F2C91848D90E001968F739927848F26
:10022000A689B7892C93A089B1898C918370806449
:100230008C93938D848D981306C00288F389E02DEA
:1002400080818F7D80830895EF92FF920F931F939B
:10025000CF93DF93EC0181E0888F9B8D8C8D981379
:100260001AC0E889F989808185FF15C09FB7F89485
:10027000EE89FF896083E889F989808183708064D1
:1002800080839FBF81E090E0DF91CF911F910F911C
:10029000FF90EF900895F62E0B8D10E00F5F1F4F2B
:1002A0000F731127E02E8C8D8E110CC00FB607FC3A
:1002B000FACFE889F989808185FFF5CFCE010E94C8
:1002C0000201F1CFEB8DEC0FFD2FF11DE35AFF4F33
:1002D000F0829FB7F8940B8FEA89FB898081806256
:1002E000CFCFCF93DF93EC01888D8823B9F0AA8913
:1002F000BB89E889F9898C9185FD03C0808186FDE1
:100300000DC00FB607FCF7CF8C9185FFF2CF80812F
:1003100085FFEDCFCE010E940201E9CFDF91CF91A1
:10032000089590E0FC01E656FF4F2491FC01EA5746
:10033000FF4F3491FC01EE58FF4FE491EE23C9F0DA
:10034000222339F0233001F1A8F4213019F12230B1
:1003500029F1F0E0EE0FFF1FE859FF4FA591B4918E
:100360008FB7F894EC91611126C030953E233C93F1
:100370008FBF08952730A9F02830C9F0243049F7FD
:10038000809180008F7D03C0809180008F77809363
:100390008000DFCF84B58F7784BDDBCF84B58F7DC0
:1003A000FBCF8091B0008F778093B000D2CF809147
:1003B000B0008F7DF9CF3E2BDACF3FB7F894809114
:1003C000910290919202A0919302B091940226B56D
:1003D000A89B05C02F3F19F00196A11DB11D3FBF7D
:1003E000BA2FA92F982F8827BC01CD01620F711D4C
:1003F000811D911D42E0660F771F881F991F4A9546
:10040000D1F708958F929F92AF92BF92CF92DF92D1
:10041000EF92FF924B015C010E94DD016B017C01B8
:100420000E94DD016C197D098E099F09683E7340A9
:1004300081059105A8F321E0821A9108A108B1086D
:1004400088EEC80E83E0D81EE11CF11C81149104D3
:10045000A104B10429F7FF90EF90DF90CF90BF90F7
:10046000AF909F908F90089580914B0390914C0393
:10047000891B990B08952091FB01260F3327331F09
:1004800021323105ECF420916602FC0190E080E01D
:10049000243069F082E00895A091FB012191AC0124
:1004A00045525E4FA40FB52FB11D2C9301968617B0
:1004B00098F38091FB01680F6093FB0180E0089541
:1004C00081E008951092660281E0809365021092A7
:1004D000600261E082E10E94910161E083E10E949B
:1004E0009101E9EBF0E080818E7F808380818D7FB8
:1004F000808388E48093B80085E48093BC000895ED
:10050000CF93DF9391E09093DA018823B9F0C09103
:10051000B800D091BA008091BC008A7B8093BC0067
:1005200060E082E10E94910160E083E10E9491011C
:100530000E946202D093BA00C093B800DF91CF91BD
:1005400008950895E0914C0380914B03E81730F42F
:10055000F0E0E459FD4F808190E008958FEF9FEF28
:10056000089590914C0380914B032FEF3FEF981724
:1005700048F4E92FF0E0E459FD4F208130E09F5F1F
:1005800090934C03C9010895CF92DF92EF92FF92AE
:100590000F931F93CF93DF937C01CB018A012091AE
:1005A0001E02222389F0EB016B01C40ED51ECC156F
:1005B000DD0569F06991D701ED91FC910190F08121
:1005C000E02DC7010995F3CF642F0E943B02C801BB
:1005D000DF91CF911F910F91FF90EF90DF90CF901F
:1005E0000895CF93DF931F92CDB7DEB76983209133
:1005F0001E022223F9F020914903203258F021E015
:1006000030E0FC013383228390E080E00F90DF91A3
:10061000CF91089580914A03E82FF0E0E15EFD4F0D
:10062000998190838F5F80934A038093490381E08F
:1006300090E0ECCF61E0CE0101960E943B02F7CF43
:1006400090E080E008950F931F938FB7F894009186
:100650008D0210918E0220918F02309190028FBFF7
:100660004091D6015091D7016091D8017091D90184
:10067000041B150B260B370B8091990290919A025F
:10068000A0919B02B0919C02083E134021053105C8
:10069000C0F00196A11DB11D8093990290939A021A
:1006A000A0939B02B0939C0248515C4F6F4F7F4FC9
:1006B0004093D6015093D7016093D8017093D9012C
:1006C000C4CF40919502509196026091970270912B
:1006D000980284179507A607B707C8F1E0919D0215
:1006E000F0919E02309799F1099561157105810588
:1006F0009105C1F16093990270939A0280939B02D5
:1007000090939C02645D7E4F8F4F9F4F6093950244
:1007100070939602809397029093980282E090E003
:100720009093A00280939F022FB7F89480918D023E
:1007300090918E02A0918F02B09190022FBF809372
:10074000D6019093D701A093D801B093D9016091BD
:10075000990270919A0280919B0290919C021F9144
:100760000F9108958091990290919A02A0919B0215
:10077000B0919C02845D9E4FAF4FBF4F8093950216
:1007800090939602A0939702B093980281E090E034
:1007900020919F023091A002232B11F490E080E081
:1007A0009093A00280939F02D2CF4F925F926F925C
:1007B0007F928F929F92AF92BF92CF92DF92EF92F1
:1007C000FF920F931F93CF93DF934B015C018091B6
:1007D000D2019091D301A091D401B091D501881597
:1007E0009905AA05BB0509F4C6C08CE3C82ED12C17
:1007F000E12CF12CC501A70196010E94AB0B60937F
:10080000A102CA01B901A70196010E94AB0B609336
:10081000A202C501B40120E13EE040E050E00E94A8
:10082000AB0BCA01B90128E130E040E050E00E9482
:10083000AB0B6093A302C501B40120E831E541E0B0
:1008400050E00E94AB0B69017A01CA01B9016C5FEB
:100850007F4F8F4F9F4F27E030E040E050E00E94F5
:10086000AB0B6F5F6093A402412C512C320140E02E
:1008700004E610E0C0E9D1E0242F30E02E54384FD8
:10088000F901E370FF273097F9F4C901B8010E941C
:10089000970B892B31F4C901BE010E94970B892B5C
:1008A00099F48EE691E0A0E0B0E0480E591E6A1E71
:1008B0007B1ED301C201AA27BB27C816D906EA06A8
:1008C000FB0638F04F5FD8CF8DE691E0A0E0B0E0B6
:1008D000ECCF4093A702C90164E670E00E94970B39
:1008E000EC01C90160E971E00E94970B309721F497
:1008F0002097D9F40097C9F04DE651E060E070E030
:10090000441A550A660A770AC418D508E608F70893
:10091000A0E0B1E020E0213069F43097E9F52097BC
:1009200011F40097C9F54DE106C04EE651E060E0D4
:1009300070E0E6CF4C9150E070E060E031E0320FC3
:10094000C416D506E606F70640F0C41AD50AE60A2C
:10095000F70A1196232F3C30F1F62F5F2093A60261
:10096000C394C092A5028092D2019092D301A0922A
:10097000D401B092D501DF91CF911F910F91FF90DB
:10098000EF90DF90CF90BF90AF909F908F907F902F
:100990006F905F904F9008954CE1CDCFFC01019096
:1009A0000020E9F73197AF01481B590BBC0188EAD9
:1009B00092E00C948400CF93DF930E94CE04EC016C
:1009C00080E391E00E94CE048C0F9D1FDF91CF91B8
:1009D00008958F929F92AF92BF92CF92DF92EF9243
:1009E000FF920F931F93CF93DF93CDB7DEB7A197FD
:1009F0000FB6F894DEBF0FBECDBF6C01990FEE08A5
:100A0000FF08F7FE41C06DE288EA92E00E942401EF
:100A10008C0122273327A9012C193D094E095F09B2
:100A200019A2CE0181967C019AE0892E912CA12CED
:100A3000B12CCA01B901A50194010E94AB0B605D04
:100A4000F70162937F01211531054105510589F7B1
:100A500090E080E0309719F0CF010E94CE04800F23
:100A6000911FA1960FB6F894DEBF0FBECDBFDF91E8
:100A7000CF911F910F91FF90EF90DF90CF90BF909B
:100A8000AF909F908F900895A701960119A28E01B3
:100A90000F5D1F4F8AE0C82ED12CE12CF12CCA012A
:100AA000B901A70196010E94AB0B605DF80162934A
:100AB0008F01211531054105510589F790E080E04E
:100AC000309779F2CF010E94CE04CBCFCF93DF9342
:100AD000EC0183E391E00E94CE04CA30D1052CF4EE
:100AE00060E388EA92E00E942401CE01DF91CF9179
:100AF0000C94E9042F923F924F925F926F927F92F3
:100B00008F929F92AF92BF92CF92DF92EF92FF921D
:100B10000F931F93CF93DF9381E080931E0288E6AB
:100B200080933F0210924A031092490360E08DE4E3
:100B300093E00E94F102C0914903C13208F0E0C085
:100B40000E94DD016B017C018091660281116BC006
:100B500082E08093660281E0809365028FEF80934C
:100B6000640210926302C0936202EFE1F2E0A0E43B
:100B7000B2E080E0C8139CC01092610280916102D3
:100B8000806D8093610280916002813009F094C091
:100B9000109260020E94DD016B017C018091610274
:100BA0008093BB008091680290916902A0916A02D3
:100BB000B0916B02892B8A2B8B2BA1F00E94DD0157
:100BC000009168021091690220916A0230916B02D3
:100BD0006C197D098E099F09061717072807390721
:100BE00008F442C08091BC0083FDD8CF85EC80938F
:100BF000BC000E94DD016B017C01809166028230A5
:100C000009F45CC080916402C0E08F3F91F1809153
:100C10006402C2E0803269F180916402C3E08033F3
:100C200041F1C4E026C08091680290916902A091D0
:100C30006A02B0916B02892B8A2B8B2B09F484CF2B
:100C40000E94DD01009168021091690220916A0200
:100C500030916B026C197D098E099F0906171707E1
:100C60002807390708F070CF809167020E94800240
:100C7000C5E010924A031092490310921E02CC2341
:100C800009F440C060E070E0CB01DF91CF911F918B
:100C90000F91FF90EF90DF90CF90BF90AF909F901B
:100CA0008F907F906F905F904F903F902F9008951E
:100CB00091919D938F5F5ECF85EE99CF8091680271
:100CC00090916902A0916A02B0916B02892B8A2BE4
:100CD0008B2B09F492CF0E94DD01009168021091E4
:100CE000690220916A0230916B026C197D098E09AC
:100CF0009F09061717072807390708F07ECFB4CFDA
:100D0000C1E0B7CF0E94DD016B017C0180916602DA
:100D1000811164C081E080936602809365029FEF39
:100D2000909364021092630296E090936202809323
:100D3000610280916102806D809361028091600206
:100D4000813009F013C1109260020E94DD016B0135
:100D50007C01809161028093BB0080916802909138
:100D60006902A0916A02B0916B02892B8A2B8B2BAE
:100D7000A1F00E94DD0100916802109169022091AA
:100D80006A0230916B026C197D098E099F09061762
:100D900017072807390708F442C08091BC0083FD7B
:100DA000D8CF85EC8093BC000E94DD016B017C01F3
:100DB00080916602813009F4DBC080916302873044
:100DC00008F0F8C080916302E0E4F2E0ACE6B2E043
:100DD000C81749F191919D93CF5FFACF8091680236
:100DE00090916902A0916A02B0916B02892B8A2BC3
:100DF0008B2B09F48BCF0E94DD01009168021091CA
:100E0000690220916A0230916B026C197D098E098A
:100E10009F09061717072807390708F077CF809131
:100E200067020E94800210924C03C0934B03C730AC
:100E300008F428CF8DE493E00E94B102D82F829568
:100E40008770CAE09D2F9F70492E8C9F400C112403
:100E50008DE493E00E94B102982F92959F708F705D
:100E6000582E9C9F500C11248DE493E00E94B102F7
:100E7000982F929593708F70382E9C9F300C112470
:100E80008DE493E00E94B1028DE493E00E94B102F0
:100E9000982F92959F708F70282E9C9F200C112464
:100EA0008DE493E00E94B102982F92959F708F700D
:100EB000682E9C9F600C11248DE493E00E94B10287
:100EC000982F92959F70282F2F70225E9C9F200D47
:100ED0001124D7FDD7CEA22FB0E020E833E341EEB6
:100EE00051E00E94DC0B4B015C01E2EBF7E09D015D
:100EF000C4E6D0E000E911E0CF01825B97408217A1
:100F000093070CF459C02E54384FC90164E670E0C1
:100F10000E94970B7C01C90160E971E00E94970B68
:100F20006C0100E011E0C1E0D0E0712CF901E37048
:100F3000FF27C615D7050CF068C0C230D10509F0EF
:100F400055C0309709F052C0E114F10421F4C114E6
:100F5000D10409F04BC090E8890E9BE3991E96E2FC
:100F6000A91EB11C21960F5F1F4FE3CF85EE1ACF4C
:100F70008091680290916902A0916A02B0916B021F
:100F8000892B8A2B8B2B09F413CF0E94DD01009152
:100F900068021091690220916A0230916B026C190B
:100FA0007D098E099F09061717072807390708F0DA
:100FB000FFCE35CF87E008CFCF0183709927892BEB
:100FC00099F4CF01BE010E94970B892B31F4CF0118
:100FD000B8010E94970B892B39F480E8880E81E5CF
:100FE000981E81E0A81EB11C319686CFD8018C9145
:100FF000A82FB0E020E831E541E050E00E94DC0B92
:10100000860E971EA81EB91EADCF252D30E0ACE38D
:10101000B0E00E94CD0B6B017C01C40CD11CE11C23
:10102000F11C232D30E0A0E1BEE00E94CD0BC60EE6
:10103000D71EE81EF91E822D8150990BDC0120E895
:1010400031E541E050E00E94E70B6C0D7D1D8E1DE7
:101050009F1D680D791D8A1D9B1D17CE85ED809300
:10106000BC008091680290916902A0916A02B091DF
:101070006B020796A11DB11D23E0B695A795979524
:1010800087952A95D1F72091BC0024FD03C01092CA
:1010900066020895409168025091690260916A0267
:1010A00070916B02452B462B472B69F30097A105E6
:1010B000B10541F025E32A95F1F700000197A10958
:1010C000B109E1CF809167020C9480021F920F92C8
:1010D0000FB60F9211242F933F934F935F936F930B
:1010E0007F938F939F93AF93BF93EF93FF9388EA80
:1010F00092E00E940201FF91EF91BF91AF919F9109
:101100008F917F916F915F914F913F912F910F90B0
:101110000FBE0F901F9018951F920F920FB60F924F
:1011200011242F938F939F93EF93FF93E091B80235
:10113000F091B9028081E091BE02F091BF0282FD80
:101140001BC090818091C1028F5F8F732091C2027A
:10115000821741F0E091C102F0E0E855FD4F958F14
:101160008093C102FF91EF919F918F912F910F90EA
:101170000FBE0F901F9018958081F4CF1F920F9291
:101180000FB60F9211242F933F938F939F93AF939A
:10119000BF9380918D0290918E02A0918F02B091A9
:1011A000900230918C0223E0230F2D3758F50196E1
:1011B000A11DB11D20938C0280938D0290938E020D
:1011C000A0938F02B093900280919102909192022D
:1011D000A0919302B09194020196A11DB11D80933C
:1011E000910290939202A0939302B0939402BF91C4
:1011F000AF919F918F913F912F910F900FBE0F90C4
:101200001F90189526E8230F0296A11DB11DD2CF7D
:101210001F920F920FB60F9211242F933F934F936B
:101220005F936F937F938F939F93AF93BF93EF934E
:10123000FF938091B900887F803609F44AC0F0F5A9
:10124000883209F4A7C018F5803109F49BC0B8F4BE
:10125000882309F4F9C0883009F494C0FF91EF9114
:10126000BF91AF919F918F917F916F915F914F91BE
:101270003F912F910F900FBE0F901F9018958831BE
:1012800009F488C0803251F78093640214C080341E
:1012900009F49DC040F48033B9F38833F9F68093A4
:1012A000640285ECB0C0803509F485C0883509F446
:1012B00096C0883499F60E942E08D0CF883909F458
:1012C0008CC038F5883729F050F4883611F0803713
:1012D00029F683E08093660210921D0257C0883879
:1012E00009F47BC0803919F0803809F0B7CF8091BC
:1012F0001D02803208F071C0E0911D0281E08E0F66
:1013000080931D028091BB00F0E0E350FE4F80838C
:101310003DC0803B39F0E0F4803A09F479C0883A66
:1013200009F09CCF84E0809366021092FC01109239
:10133000FB01E0914703F091480309958091FB017F
:1013400081110FC081E08093FB011092DB0109C085
:10135000803C09F4A6CF883C09F4A3CF883B09F070
:101360007DCFE091FC0181E08E0F8093FC01F0E0E5
:10137000E552FE4F80818093BB009091FC018091EB
:10138000FB0129C0809161028093BB0085EC8093B2
:10139000BC0064CF9091630280916202981758F567
:1013A000E091630281E08E0F80936302F0E0E05CE5
:1013B000FD4F8081E9CFE091630281E08E0F809341
:1013C00063028091BB00F0E0E05CFD4F8083909170
:1013D0006302809162029817C8F285E8D8CFE09145
:1013E000630281E08E0F809363028091BB00F0E086
:1013F000E05CFD4F80838091650281115CCF81E0CC
:101400008093600284EA8093BC001092660226CF2B
:1014100085EC8093BC001092660280911D028032A0
:1014200030F4E0911D02F0E0E350FE4F1082609135
:101430001D0270E0E0914503F09146038DEF91E0CD
:10144000099510921D020ACF1092640234CFCF92F8
:10145000DF92EF92FF92E8EAF2E01382128288EEC6
:10146000C82E83E0D82EE12CF12CC482D582E682EE
:10147000F78280E191E09183808385EC90E095870D
:10148000848784EC90E09787868780EC90E0918B4E
:10149000808B81EC90E0938B828B82EC90E0958B3B
:1014A000848B86EC90E0978B868B118E128E138E38
:1014B000148E10924C0310924B0310924A03109218
:1014C00049030E94620282E890E09093480380936F
:1014D000470383E890E09093460380934503EDE44F
:1014E000F3E013821282C482D582E682F78282E21E
:1014F00091E091838083FF90EF90DF90CF900895EB
:10150000789484B5826084BD84B5816084BD85B5DE
:10151000826085BD85B5816085BD80916E008160EA
:1015200080936E0010928100809181008260809390
:101530008100809181008160809381008091800092
:101540008160809380008091B10084608093B100BD
:101550008091B00081608093B00080917A008460B7
:1015600080937A0080917A00826080937A008091E3
:101570007A00816080937A0080917A0080688093FD
:101580007A001092C100E091B802F091B90282E0B5
:101590008083E091B402F091B5021082E091B6022E
:1015A000F091B7028FEC80831092C002E091BC02F0
:1015B000F091BD0286E08083E091BA02F091BB0217
:1015C000808180618083E091BA02F091BB028081CA
:1015D00088608083E091BA02F091BB0280818068CC
:1015E0008083E091BA02F091BB0280818F7D80837D
:1015F0008AE795E090939E0280939D0280919902E4
:1016000090919A02A0919B02B0919C0280939502C6
:1016100090939602A0939702B09398020E9423039E
:101620000E94230380919F029091A002029709F4E7
:1016300068C085E391E00E94DB04C0E0D0E00E9436
:10164000230380919F029091A002029709F05CC051
:101650000E9423030E94D5038091A30290E00E9480
:10166000E9040E9423030E94D5038091A20290E026
:101670000E9466050E9423030E94D5038091A10267
:1016800090E00E9466058DE691E00E94CE040E94E3
:1016900023030E94D5038091A50290E00E94E904F3
:1016A0008DE691E00E94CE040E9423030E94D503A0
:1016B0008091A60290E00E94E9048DE691E00E94EC
:1016C000CE040E9423030E94D5038091A70290E0DC
:1016D0008E54984F0E94E90480E391E00E94CE046A
:1016E00068EE73E080E090E00E940202209709F427
:1016F000A6CF0E94EE00882309F4A1CF0E9400002B
:101700009ECF81E591E097CF8FE691E00E94DB04C8
:101710008FE991E00E94DB0480E391E00E94CE0417
:1017200060EA7FE080E090E00E940202D9CF97FB60
:10173000072E16F4009407D077FD09D00E94EF0B16
:1017400007FC05D03EF4909581959F4F08957095C4
:1017500061957F4F0895A1E21A2EAA1BBB1BFD01C4
:101760000DC0AA1FBB1FEE1FFF1FA217B307E40780
:10177000F50720F0A21BB30BE40BF50B661F771FD8
:10178000881F991F1A9469F76095709580959095B8
:101790009B01AC01BD01CF010895A29FB001B39F91
:1017A000C001A39F700D811D1124911DB29F700D6A
:1017B000811D1124911D08950E94CD0BA59F900DB0
:1017C000B49F900DA49F800D911D11240895B7FF23
:1017D0000C94DC0B0E94DC0B821B930B0895AA1B5C
:1017E000BB1B51E107C0AA1FBB1FA617B70710F00C
:1017F000A61BB70B881F991F5A95A9F7809590953E
:10180000BC01CD010895EE0FFF1F0590F491E02D6E
:101810000994F894FFCF1F1C1F1E1F1E1F1F1E1FA1
:101820001E1F0000000024018400B1007101E200CD
:10183000C000D40000000000F102C4022003A10295
:101840003402B102A2020D0A003A00556E61626CC8
:101850006520746F2073796E6320776974682074D3
:1018600068652052544300525443206861732073CA
:101870006574207468652073797374656D2074696C
:101880006D650020005468652074696D652068618D
:1018900073206E6F74206265656E207365742E20F0
:1018A00020506C656173652072756E2074686520C8
:1018B00054696D650054696D6552544353657420D5
:1018C0006578616D706C652C206F722044533133E4
:1018D00030375254432053657454696D65206578E0
:0818E000616D706C652E0000C3
:107E0000112484B714BE81FFF0D085E080938100F7
:107E100082E08093C00088E18093C10086E0809377
:107E2000C20080E18093C4008EE0C9D0259A86E02C
:107E300020E33CEF91E0309385002093840096BBD3
:107E4000B09BFECF1D9AA8958150A9F7CC24DD24C4
:107E500088248394B5E0AB2EA1E19A2EF3E0BF2EE7
:107E6000A2D0813461F49FD0082FAFD0023811F036
:107E7000013811F484E001C083E08DD089C08234E0
:107E800011F484E103C0853419F485E0A6D080C0E4
:107E9000853579F488D0E82EFF2485D0082F10E0AE
:107EA000102F00270E291F29000F111F8ED06801E7
:107EB0006FC0863521F484E090D080E0DECF843638
:107EC00009F040C070D06FD0082F6DD080E0C81688
:107ED00080E7D80618F4F601B7BEE895C0E0D1E017
:107EE00062D089930C17E1F7F0E0CF16F0E7DF06D8
:107EF00018F0F601B7BEE89568D007B600FCFDCFD4
:107F0000A601A0E0B1E02C9130E011968C91119780
:107F100090E0982F8827822B932B1296FA010C0160
:107F200087BEE89511244E5F5F4FF1E0A038BF0790
:107F300051F7F601A7BEE89507B600FCFDCF97BE46
:107F4000E89526C08437B1F42ED02DD0F82E2BD052
:107F50003CD0F601EF2C8F010F5F1F4F84911BD097
:107F6000EA94F801C1F70894C11CD11CFA94CF0C13
:107F7000D11C0EC0853739F428D08EE10CD085E9AC
:107F80000AD08FE07ACF813511F488E018D01DD067
:107F900080E101D065CF982F8091C00085FFFCCF94
:107FA0009093C60008958091C00087FFFCCF809118
:107FB000C00084FD01C0A8958091C6000895E0E648
:107FC000F0E098E1908380830895EDDF803219F02E
:107FD00088E0F5DFFFCF84E1DECF1F93182FE3DFCA
:107FE0001150E9F7F2DF1F91089580E0E8DFEE27F6
:047FF000FF270994CA
:027FFE00040479
:00000001FF
