:100000000C9458000C9480000C9480000C94800098
:100010000C9480000C9480000C9480000C94800060
:100020000C9480000C9480000C9480000C94800050
:100030000C9480000C9480000C9480000C94800040
:100040000C9471040C9480000C943F040C941904DB
:100050000C9480000C9480000C9480000C94800020
:100060000C94BB040C9480000000000025002800C4
:100070002B00040404040404040402020202020229
:10008000030303030303010204081020408001025C
:1000900004081020010204081020000000080002DB
:1000A0000100000304070000000000000000DA0562
:1000B00011241FBECFEFD8E0DEBFCDBF11E0A0E01E
:1000C000B1E0EEECF0E102C005900D92AE32B10766
:1000D000D9F722E0AEE2B1E001C01D92AB39B20720
:1000E000E1F710E0C8E5D0E004C02197FE010E94CE
:1000F0005F08C735D107C9F70E9413060C9465083D
:100100000C94000008950895AF92BF92CF92DF92B1
:10011000EF92FF920F931F93CF93DF936C017B01BC
:100120008B01040F151FEB015E01AE18BF08C0174D
:10013000D10759F06991D601ED91FC910190F081C0
:10014000E02DC6010995892B79F7C501DF91CF9183
:100150001F910F91FF90EF90DF90CF90BF90AF90E5
:100160000895FC01538D448D252F30E0842F90E0BD
:10017000821B930B541710F0CF96089501970895A2
:10018000FC01918D828D981761F0A28DAE0FBF2F6B
:10019000B11D5D968C91928D9F5F9F73928F90E0C1
:1001A00008958FEF9FEF0895FC01918D828D981730
:1001B00031F0828DE80FF11D858D90E008958FEF6D
:1001C0009FEF0895FC01918D228D892F90E0805C36
:1001D0009F4F821B91098F739927089582EF91E0B9
:1001E0000E94E20021E0892B09F420E0822F08958B
:1001F00080E090E0892B29F00E94EE0081110C94A0
:1002000000000895FC01A48DA80FB92FB11DA35AB9
:10021000BF4F2C91848D90E001968F739927848F26
:10022000A689B7892C93A089B1898C918370806449
:100230008C93938D848D981306C00288F389E02DEA
:1002400080818F7D80830895EF92FF920F931F939B
:10025000CF93DF93EC0181E0888F9B8D8C8D981379
:100260001AC0E889F989808185FF15C09FB7F89485
:10027000EE89FF896083E889F989808183708064D1
:1002800080839FBF81E090E0DF91CF911F910F911C
:10029000FF90EF900895F62E0B8D10E00F5F1F4F2B
:1002A0000F731127E02E8C8D8E110CC00FB607FC3A
:1002B000FACFE889F989808185FFF5CFCE010E94C8
:1002C0000201F1CFEB8DEC0FFD2FF11DE35AFF4F33
:1002D000F0829FB7F8940B8FEA89FB898081806256
:1002E000CFCFCF93DF93EC01888D8823B9F0AA8913
:1002F000BB89E889F9898C9185FD03C0808186FDE1
:100300000DC00FB607FCF7CF8C9185FFF2CF80812F
:1003100085FFEDCFCE010E940201E9CFDF91CF91A1
:10032000089590E0FC01E656FF4F2491FC01EA5746
:10033000FF4F3491FC01EE58FF4FE491EE23C9F0DA
:10034000222339F0233001F1A8F4213019F12230B1
:1003500029F1F0E0EE0FFF1FE859FF4FA591B4918E
:100360008FB7F894EC91611126C030953E233C93F1
:100370008FBF08952730A9F02830C9F0243049F7FD
:10038000809180008F7D03C0809180008F77809363
:100390008000DFCF84B58F7784BDDBCF84B58F7DC0
:1003A000FBCF8091B0008F778093B000D2CF809147
:1003B000B0008F7DF9CF3E2BDACF3FB7F894809114
:1003C000770190917801A0917901B0917A0126B5D9
:1003D000A89B05C02F3F19F00196A11DB11D3FBF7D
:1003E000BA2FA92F982F8827BC01CD01620F711D4C
:1003F000811D911D42E0660F771F881F991F4A9546
:10040000D1F7089520914F01260F3327331F213252
:100410003105ECF42091C801FC0190E080E024302B
:1004200069F082E00895A0914F012191AC01415DF6
:100430005E4FA40FB52FB11D2C930196861798F32C
:1004400080914F01680F60934F0180E0089581E033
:1004500008951092C80181E08093C7011092A20113
:1004600061E082E10E94910161E083E10E949101DB
:10047000E9EBF0E080818E7F808380818D7F8083B7
:1004800088E48093B80085E48093BC000895CF93FE
:10049000DF9391E090932E018823B9F0C091B800CA
:1004A000D091BA008091BC008A7B8093BC0060E050
:1004B00082E10E94910160E083E10E9491010E942B
:1004C0002902D093BA00C093B800DF91CF9108956C
:1004D0008F929F92AF92BF92CF92DF92EF92FF9254
:1004E0000F931F93CF93DF93D091F101D13208F096
:1004F000D7C0182FC091F0010E94DD016B017C0173
:100500008091C80181116BC082E08093C801109373
:10051000C7018FEF8093C6011092C501D093C4012B
:10052000A0EDB1E0E4EAF1E080E0D81391C01092D0
:10053000A3018091A301CC0FC82BC093A30180918C
:10054000A201813009F088C01092A2010E94DD0151
:100550006B017C018091A3018093BB008091CA0153
:100560009091CB01A091CC01B091CD01892B8A2B28
:100570008B2BA1F00E94DD010091CA011091CB01EB
:100580002091CC013091CD016C197D098E099F0914
:10059000061717072807390708F442C08091BC00E6
:1005A00083FDD8CF85EC8093BC000E94DD016B01F8
:1005B0007C018091C801823009F450C08091C6014D
:1005C0008F3F09F46FC08091C601803209F46CC07E
:1005D0008091C601803309F469C084E026C080910F
:1005E000CA019091CB01A091CC01B091CD01892B92
:1005F0008A2B8B2B09F484CF0E94DD018090CA01E5
:100600009090CB01A090CC01B090CD016C197D09E8
:100610008E099F0986169706A806B90608F070CFBE
:100620008091C9010E94470285E01092CF0110928B
:10063000F1011092CE01DF91CF911F910F91FF90A8
:10064000EF90DF90CF90BF90AF909F908F900895E4
:100650009D9191938F5F69CF85EEA5CF8091CA015F
:100660009091CB01A091CC01B091CD01892B8A2B27
:100670008B2B09F49ECF0E94DD010091CA011091DD
:10068000CB012091CC013091CD016C197D098E09EF
:100690009F09061717072807390708F08ACFC0CF28
:1006A00081E0C3CF80E0C1CF82E0BFCF83E0BDCF88
:1006B0000895E091800180917F01E81730F4F0E027
:1006C000EF57FE4F808190E008958FEF9FEF0895E0
:1006D0009091800180917F012FEF3FEF981748F4B0
:1006E000E92FF0E0EF57FE4F208130E09F5F9093BD
:1006F0008001C901089580917F0190918001891B3B
:10070000990B0895CF92DF92EF92FF920F931F9370
:10071000CF93DF937C01CB018A012091CE0122236C
:1007200089F0EB016B01C40ED51ECC15DD0569F017
:100730006991D701ED91FC910190F081E02DC70105
:100740000995F3CF642F0E940202C801DF91CF9177
:100750001F910F91FF90EF90DF90CF900895CF936E
:10076000DF931F92CDB7DEB769832091CE0122239C
:10077000F9F02091F101203258F021E030E0FC0145
:100780003383228390E080E00F90DF91CF91089532
:100790008091CF01E82FF0E0E053FE4F99819083E4
:1007A0008F5F8093CF018093F10181E090E0ECCFE7
:1007B00061E0CE0101960E940202F7CF90E080E056
:1007C000089585ED8093BC008091CA019091CB0182
:1007D000A091CC01B091CD010796A11DB11D23E0E0
:1007E000B695A795979587952A95D1F72091BC0046
:1007F00024FD03C01092C80108954091CA01509190
:10080000CB016091CC017091CD01452B462B472B3C
:1008100069F30097A105B10541F025E32A95F1F7A9
:1008200000000197A109B109E1CF8091C9010C94A1
:1008300047021F920F920FB60F9211242F933F93EE
:100840004F935F936F937F938F939F93AF93BF93D8
:10085000EF93FF9382EF91E00E940201FF91EF91ED
:10086000BF91AF919F918F917F916F915F914F91C8
:100870003F912F910F900FBE0F901F9018951F92D0
:100880000F920FB60F9211242F938F939F93EF9394
:10089000FF93E0910202F09103028081E09108024F
:1008A000F091090282FD1BC0908180910B028F5F45
:1008B0008F7320910C02821741F0E0910B02F0E05F
:1008C000EE50FE4F958F80930B02FF91EF919F9119
:1008D0008F912F910F900FBE0F901F9018958081D0
:1008E000F4CF1F920F920FB60F9211242F933F93C4
:1008F0008F939F93AF93BF938091730190917401F5
:10090000A0917501B09176013091720123E0230F1F
:100910002D3758F50196A11DB11D209372018093CA
:10092000730190937401A0937501B0937601809147
:10093000770190917801A0917901B0917A010196A7
:10094000A11DB11D8093770190937801A093790147
:10095000B0937A01BF91AF919F918F913F912F9169
:100960000F900FBE0F901F90189526E8230F029648
:10097000A11DB11DD2CF1F920F920FB60F9211245D
:100980002F933F934F935F936F937F938F939F9397
:10099000AF93BF93EF93FF938091B900887F803628
:1009A00009F44AC0F0F5883209F4A7C018F580317F
:1009B00009F49BC0B8F4882309F4F9C0883009F41D
:1009C00094C0FF91EF91BF91AF919F918F917F91D3
:1009D0006F915F914F913F912F910F900FBE0F90AC
:1009E0001F901895883109F488C0803251F78093A0
:1009F000C60114C0803409F49DC040F48033B9F3BB
:100A00008833F9F68093C60185ECB0C0803509F4CF
:100A100085C0883509F496C0883499F60E94E103B0
:100A2000D0CF883909F48CC038F5883729F050F4D4
:100A3000883611F0803729F683E08093C801109240
:100A4000710157C0883809F47BC0803919F08038AB
:100A500009F0B7CF80917101803208F071C0E09148
:100A6000710181E08E0F809371018091BB00F0E0F5
:100A7000EF5AFE4F80833DC0803B39F0E0F4803A6E
:100A800009F479C0883A09F09CCF84E08093C801CA
:100A90001092500110924F01E0917D01F0917E0182
:100AA000099580914F0181110FC081E080934F0122
:100AB00010922F0109C0803C09F4A6CF883C09F4AC
:100AC000A3CF883B09F07DCFE091500181E08E0FEC
:100AD00080935001F0E0E15DFE4F80818093BB0088
:100AE0009091500180914F0129C08091A301809382
:100AF000BB0085EC8093BC0064CF9091C5018091D0
:100B0000C401981758F5E091C50181E08E0F8093DC
:100B1000C501F0E0EC55FE4F8081E9CFE091C501C1
:100B200081E08E0F8093C5018091BB00F0E0EC5511
:100B3000FE4F80839091C5018091C4019817C8F23F
:100B400085E8D8CFE091C50181E08E0F8093C50183
:100B50008091BB00F0E0EC55FE4F80838091C7018F
:100B600081115CCF81E08093A20184EA8093BC0074
:100B70001092C80126CF85EC8093BC001092C8016A
:100B800080917101803230F4E0917101F0E0EF5A10
:100B9000FE4F10826091710170E0E0917B01F09155
:100BA0007C0181E591E00995109271010ACF1092C4
:100BB000C60134CFE2EFF1E01382128288EE93E0B7
:100BC000A0E0B0E084839583A683B7832AE031E078
:100BD0003183208325EC30E03587248724EC30E016
:100BE0003787268720EC30E0318B208B21EC30E0FA
:100BF000338B228B22EC30E0358B248B26EC30E0DB
:100C0000378B268B118E128E138E148EEFE8F2E046
:100C10001382128284839583A683B7838CE191E04B
:100C2000918380830895789484B5826084BD84B56F
:100C3000816084BD85B5826085BD85B5816085BDD7
:100C400080916E00816080936E001092810080918F
:100C50008100826080938100809181008160809317
:100C60008100809180008160809380008091B1003C
:100C700084608093B1008091B00081608093B00067
:100C800080917A00846080937A0080917A008260FB
:100C900080937A0080917A00816080937A008091BD
:100CA0007A00806880937A001092C10010928001CF
:100CB00010927F011092CF011092F1010E9429023F
:100CC00082E890E090937E0180937D0183E890E03C
:100CD00090937C0180937B01E0910202F0910302EA
:100CE00082E08083E091FE01F091FF011082E091AB
:100CF0000002F09101028FEC808310920A02E091D1
:100D00000602F091070286E08083E0910402F091F0
:100D10000502808180618083E0910402F0910502E8
:100D2000808188608083E0910402F09105028081D7
:100D300080688083E0910402F091050280818F7DBC
:100D4000808381E08093CE0188E68093F00160E0AB
:100D50008FE892E00E94AF036091A1018FE892E0DA
:100D60000E94AF03609105018FE892E00E94AF03FB
:100D7000609104018FE892E00E94AF03609103014B
:100D80008FE892E00E94AF03609102018FE892E049
:100D90000E94AF03609101018FE892E00E94AF03CF
:100DA000609100018FE892E00E94AF0381E00E9411
:100DB0006802D1E098E6792E25EE622E35EC532EAE
:100DC000CAE000E010E044244A9446E0342ED09378
:100DD000CE017092F0011092CF011092F10160E00B
:100DE0008FE892E00E94AF0381E00E9468020E94B7
:100DF000DD016B017C018091C801811161C0D0933C
:100E0000C801D093C7014092C6011092C50130922B
:100E1000C401D093A3018091A301806D8093A301AD
:100E20008091A201813009F017C11092A2010E94A5
:100E3000DD016B017C018091A3018093BB00809157
:100E4000CA019091CB01A091CC01B091CD01892B29
:100E50008A2B8B2BA1F00E94DD018090CA0190901B
:100E6000CB01A090CC01B090CD016C197D098E0909
:100E70009F0986169706A806B90608F442C0809115
:100E8000BC0083FDD8CF5092BC000E94DD016B01F5
:100E90007C018091C801813009F4E1C08091C501D5
:100EA000873008F0FEC08091C501A4EAB1E0E1E816
:100EB000F1E090E0981751F12D9121939F5FFACFC7
:100EC0008091CA019091CB01A091CC01B091CD014C
:100ED000892B8A2B8B2B09F48ECF0E94DD01809009
:100EE000CA019090CB01A090CC01B090CD016C19BB
:100EF0007D098E099F0986169706A806B90608F08F
:100F00007ACF8091C9010E94470280E0109280014F
:100F100080937F018FE892E00E946803282F22953A
:100F20002F706C2F0E9453082C9F900D11249093CA
:100F3000A1018FE892E00E946803282F22952F706C
:100F40006C2F0E9453082C9F900D11249093050143
:100F50008FE892E00E946803282F22952F706C2F53
:100F60000E9453082C9F900D1124909304018FE848
:100F700092E00E946803282F22952F706C2F0E9408
:100F800053082C9F900D1124909303018FE892E059
:100F90000E946803282F22952F706C2F0E945308FF
:100FA0002C9F900D1124909302018FE892E00E94F3
:100FB0006803282F22952F706C2F0E9453082C9FB6
:100FC000900D1124909301018FE892E00E94680334
:100FD000282F22952F706C2F0E9453082C9F900D64
:100FE00011249093000142E050E06AE271E082EF48
:100FF00091E00E9484000E94DD014B015C0188EEBB
:10100000C82E83E0D82EE12CF12C0E94DD01681956
:1010100079098A099B09683E734081059105A8F307
:1010200021E0C21AD108E108F10888EE880E83E0B9
:10103000981EA11CB11CC114D104E104F10429F7CC
:101040000115110509F4C3CE0E94EE00882309F4AE
:10105000BECE0E940000BBCE6092BC0016CF809135
:10106000CA019091CB01A091CC01B091CD01892B07
:101070008A2B8B2B09F40DCF0E94DD018090CA01D1
:101080009090CB01A090CC01B090CD016C197D095E
:101090008E099F0986169706A806B90608F0F9CEAC
:1010A00030CF87E002CF991B79E004C0991F9617D3
:1010B00008F0961B881F7A95C9F780950895EE0F62
:0E10C000FF1F0590F491E02D0994F894FFCFE6
:1010CE002301210613400000000024018400B1001A
:1010DE007101E200C000D40000000000AF038203E3
:0E10EE00DE0358037B03680359030D0A00005C
:00000001FF
